:100000000C942A000C9406040C9406040C94060428
:100010000C9406040C9406040C9406040C94060438
:100020000C9406040C9406040C9406040C94060428
:100030000C9406040C9406040C9406040C94060418
:100040000C9406040C9406040C9406040C94060408
:100050000C94060411241FBECFE5D8E0DEBFCDBF4F
:0C0060000E9436000C943400F894FFCF8E
:10006C000E9403020E94DA03D1E0C1E010E001C05B
:10007C00D1E067E083E40E946A02813069F5C13007
:10008C0059F5193048F5C10F0E94DA036FE081E091
:10009C000E94180381E3810F0E94B703C93021F439
:1000AC0061E082E00E94180360E070E080EC9FE366
:1000BC000E945A032FE38DE093E021508040904042
:1000CC00E1F700C000006DEC7CEC8CEC9DE30E9431
:1000DC005A031C2FC0E003C0811101C0C1E066E0CF
:1000EC0083E40E946A028130D1F5D130C1F511232D
:1000FC00B1F111500E94DA036FE081E00E94180305
:10010C008DEC189F812D1124869586958695880FE8
:10011C00982F990F990F890F212F281B822F805D03
:10012C000E94B703111104C061E082E00E94180321
:10013C0060E070E080EC9FE30E9439038FE39DE068
:10014C0023E0815090402040E1F700C000006DECAE
:10015C007CEC8CEC9DE30E943903D0E08ACF8823A1
:06016C0009F486CF86CFE6
:10017200823419F118F4813439F008958334B1F1DD
:10018200843409F44CC00895413059F42AB381E013
:1001920090E002C0880F991F6A95E2F7822B8ABB12
:1001A20008952AB381E090E002C0880F991F6A95F2
:1001B200E2F7809582238ABB0895413059F427B330
:1001C20081E090E002C0880F991F6A95E2F7822BC6
:1001D20087BB089527B381E090E002C0880F991F82
:1001E2006A95E2F78095822387BB0895413059F4DE
:1001F20024B381E090E002C0880F991F6A95E2F76C
:10020200822B84BB089524B381E090E002C0880F62
:10021200991F6A95E2F78095822384BB0895413045
:1002220059F421B381E090E002C0880F991F6A95CA
:10023200E2F7822B81BB089521B381E090E002C0F6
:10024200880F991F6A95E2F78095822381BB0895F2
:10025200823419F118F4813439F008958334B1F1FC
:10026200843409F44CC00895413059F42BB381E031
:1002720090E002C0880F991F6A95E2F7822B8BBB30
:1002820008952BB381E090E002C0880F991F6A9510
:10029200E2F7809582238BBB0895413059F428B34D
:1002A20081E090E002C0880F991F6A95E2F7822BE5
:1002B20088BB089528B381E090E002C0880F991F9F
:1002C2006A95E2F78095822388BB0895413059F4FC
:1002D20025B381E090E002C0880F991F6A95E2F78A
:1002E200822B85BB089525B381E090E002C0880F80
:1002F200991F6A95E2F78095822385BB0895413064
:1003020059F422B381E090E002C0880F991F6A95E8
:10031200E2F7822B82BB089522B381E090E002C013
:10032200880F991F6A95E2F78095822382BB089510
:100332000FC00E94EB0338F00E94F20320F09523D5
:1003420011F00C94F9030C94030411240C94E503AA
:100352000E94F60270F3959FC1F3950F50E0551F6E
:10036200629FF001729FBB27F00DB11D639FAA2708
:10037200F00DB11DAA1F649F6627B00DA11D661F57
:10038200829F2227B00DA11D621F739FB00DA11D78
:10039200621F839FA00D611D221F749F3327A00D32
:1003A200611D231F849F600D211D822F762F6A2FCE
:1003B20011249F5750409AF0F1F088234AF0EE0F33
:1003C200FF1FBB1F661F771F881F91505040A9F760
:1003D2009E3F510580F00C94F9030C94E5035F3FB6
:1003E200E4F3983ED4F3869577956795B795F7959C
:1003F200E7959F5FC1F7FE2B880F911D9695879514
:0404020097F90895C9
:100406008FE493EC0197F1F700C0000041E060E053
:1004160081E40E94B90041E061E081E40E94B900F4
:1004260041E062E081E40E94B90041E063E081E4DA
:100436000E94B90041E064E081E40E94B90041E015
:1004460065E081E40E94B90041E066E081E40E9433
:10045600B90041E067E081E40E94B90041E060E054
:1004660082E40E94B90041E062E082E40E94B900A1
:1004760041E061E082E40E94B90040E062E082E48B
:100486000E94290188E30E94A50389EF90E0019765
:10049600F1F700C000008EE00E94A50389EF90E00E
:1004A6000197F1F700C0000081E00E94A50383ECEC
:1004B60099E00197F1F700C0000086E00E94A503CD
:0E04C60089EF90E00197F1F700C00000089563
:1004D4008234E9F018F4813431F055C0833459F191
:1004E4008434E9F150C049B381E090E09C01062EC8
:1004F40002C0220F331F0A94E2F7842F90E0822374
:10050400932302C0959587956A95E2F7089546B3BB
:1005140081E090E09C01062E02C0220F331F0A9452
:10052400E2F7842F90E08223932302C09595879568
:100534006A95E2F7089543B381E090E09C01062EAA
:1005440002C0220F331F0A94E2F7842F90E0822323
:10055400932302C0959587956A95E2F7089540B371
:1005640081E090E09C01062E02C0220F331F0A9402
:10057400E2F7842F90E08223932302C09595879518
:0A0584006A95E2F7089580E00895FB
:10058E000E94FE0288F09F5798F0B92F9927B75115
:10059E00B0F0E1F0660F771F881F991F1AF0BA9519
:1005AE00C9F714C0B13091F00E94E403B1E0089590
:1005BE000C94E403672F782F8827B85F39F0B93F82
:1005CE00CCF3869577956795B395D9F73EF49095CC
:0E05DE008095709561957F4F8F4F9F4F0895C8
:1005EC0057FD9058440F551F59F05F3F71F04795D8
:1005FC00880F97FB991F61F09F3F79F087950895BD
:10060C00121613061406551FF2CF4695F1DF08C0DB
:10061C00161617061806991FF1CF869571056105F8
:04062C000894089591
:100630009FEF980F923070F4613170F4662371F07F
:10064000813019F42FE7260F0AC0823041F42FEBD6
:10065000260F05C020E803C020E801C020E8822F53
:100660000E94A50389EF90E00197F1F700C0000018
:020670000895EB
:1006720021B3206221BB2FB522602FBD2EB5286089
:100682002EBD2EB520612EBD20E030E04AE754E4B5
:100692000E94FF030E94C7027BBD6ABD8FE19EE4F8
:1006A20097BD86BD8EB581608EBD8FB580688FBDCA
:0206B2000895A9
:1006B40021B3206121BB2FB522602FBD2EB5286048
:1006C4002EBD2EB520612EBD20E030E04AE754E473
:1006D4000E94FF030E94C70279BD68BD8FE19EE4BA
:1006E40097BD86BD8EB581608EBD8FB580628FBD8E
:0206F400089567
:1006F60041E060E082E40E94290183EF91E00197E6
:10070600F1F700C0000040E060E082E40E942901A9
:0E07160083EF91E00197F1F700C00000089515
:10072400823459F018F4813431F00895833439F067
:10073400843439F008956BBB089568BB089565BB94
:06074400089562BB089558
:10074A00682F81E40E94920340E061E082E40E9403
:10075A0029010E947B0389EF90E00197F1F700C01D
:04076A0000000895EE
:10076E00682F81E40E94920341E061E082E40E94DE
:10077E0029010E947B0389EF90E00197F1F700C0F9
:04078E0000000895CA
:10079200092E0394000C11F4882352F0BB0F40F48D
:1007A200BF2B11F460FF04C06F5F7F4F8F4F9F4FCD
:0207B2000895A8
:1007B40081E00E94A50383EC99E00197F1F700C062
:0407C4000000089594
:0E07C800E894BB2766277727CB0197F90895A1
:0E07D60000240A941616170618060906089540
:0E07E40000240A941216130614060506089542
:0C07F20097F99F6780E870E060E00895D0
:0807FE000E9499010C94C9034B
:060806009FEF80EC089555
:04080C000C94000048
:00000001FF
